:101D800001C016C1112484B7882379F0982F9A7066
:101D9000923059F081FF03C094B7977F94BF282EEB
:101DA00080E0F2D0EEE0FF27099482E08093860085
:101DB00088E18093850086E08093840080E18093B1
:101DC00081008EE0E1D0BB24B39495E0A92E23E0FE
:101DD000722E32ECC32E3EE0D32E8D2D806C682EF9
:101DE000C7D0813479F4C4D0182FD3D0123811F46D
:101DF00080E004C08BE3113809F083E0B2D080E1C9
:101E0000B0D0EECF823419F484E1CBD0F8CF853452
:101E100011F485E0FACF853541F4AAD0C82FA8D0B7
:101E2000D82FCC0FDD1FB5D0EACF863519F484E06A
:101E3000B8D0DECF843609F05CC09AD099D0582E45
:101E400097D0482E00E011E04801EFEF8E1A9E0A6D
:101E50008FD0F801808384015810F6CF9AD0209754
:101E600081F480910001809324018091010180938D
:101E70002501C092000160920101F5E44F121AC0E1
:101E8000FFCFC031D105C9F7E0902401F0902501C2
:101E900080910C018093260180910D018093270190
:101EA000C7010E9780930C01892F8F70806C8093EF
:101EB0000D01E3CF8C2F8F73FE0131F477BEE895CF
:101EC00007B600FCFDCFFE01A0E0B1E0CD01029617
:101ED0002D913C910901B7BEE89511243296DC01A1
:101EE0005812F4CFFE01A7BEE89507B600FCFDCF5F
:101EF00086CF843739F53CD03BD0982E39D049D0A5
:101F00008E010115110549F4809124012AD09A947B
:101F10000F5F1F4F9110F5CF72CF0130110519F4EB
:101F200080912501F3CF0C31110519F48091260120
:101F3000EDCF0D31110519F480912701E7CFF8019C
:101F40008491E4CF853739F424D08EE10AD083E937
:101F500008D085E153CF813509F065CF88E014D0F2
:101F600062CF9091860095FFFCCF8093800008950A
:101F70008091860087FFFCCF8091860084FD01C0A0
:101F8000A89580918000089598ED9093710081BD8F
:101F90000895EEDF803219F088E0F6DFFFCF84E1AC
:101FA000E0CFCF93C82FE4DFC150E9F7CF91F1CF55
:101FB000FC010A0167BFE895112407B600FCFDCFBC
:021FC000089582
:021FFE00003BA6
:0400000300001D805C
:00000001FF
